:020000040800F2
:10000000500C002001010008213600088D2B00084B
:10001000D5340008BD0B0008E53E000800000000D4
:100020000000000000000000000000002D39000862
:10003000BF0B0008000000002B3900082F39000812
:100040001B0100081B0100081B0100081B01000820
:100050001B0100081B0100081B0100081B01000810
:100060001B0100081B010008C90B00081B01000848
:100070001B0100081B0100081B0100081B010008F0
:100080001B0100081B0100081B0100081B010008E0
:100090001B0100081B0100081B0100081B010008D0
:1000A0001B010008AD3900081B0100081B010008F6
:1000B000B93900081B010008C53900081B010008F8
:1000C0001B0100081B0100081B0100081B010008A0
:1000D0001B010008953E00081B010008D93E0008DE
:1000E000C10B00081B0100081B010008DFF80CD041
:1000F00000F096FC00480047255F0008500C0020E7
:100100000648804706480047FEE7FEE7FEE7FEE7B1
:10011000FEE7FEE7FEE7FEE7FEE7FEE7AB39000895
:10012000ED0000082DE9F0410024061B254671F181
:10013000000605DA01240027D0EB070067EB010178
:10014000161E73F1000605DA0027D2EB070201251F
:1001500067EB030300F066FB86460E4617469C4697
:10016000AC4204D00025D0EB050E65EB010624B1AE
:100170000020D2EB000760EB030C704631463A4694
:100180006346BDE8F081202A04DB203A21FA02F020
:100190000021704721FA02F3D040C2F120029140C1
:1001A000084319467047D2B201E000F8012B491EFE
:1001B000FBD270470022F6E710B513460A46044604
:1001C0001946FFF7F0FF204610BD421C10F8011B36
:1001D0000029FBD1801A704730B504460020034641
:1001E00000E05B1C934203D2E05CCD5C401BF8D086
:1001F00030BDF0B480EA0102D40F4200B2EB410FEF
:1002000002D20246084611464A0042D0C30DDDB272
:10021000C1F3C752AD1A202D35DAC1F3160141F4EE
:10022000000204B15242C5F1200602FA06F12A4149
:100230001044B3EBD05F23D0C4B1012DA0EBC35069
:1002400009DCF0BC4FF0004202EAC352DBB200F519
:10025000000000F042BB400000F1807000EBC35092
:10026000A0F1807040EAD170490009E0490841EAF4
:10027000C071A0EBC35000F50000400800EBC35074
:10028000F0BC00F021BB6142012202EB4101001BE6
:10029000F6E7F0BC704781F00041AAE780F000402B
:1002A000A7E780EA010210B502F00043400022D027
:1002B0004A001FD0010E01EB1261C0F35600C2F3D9
:1002C000560240F4000042F40002A0FB02200004A9
:1002D0007F39140400D0401C50EA124001D4400081
:1002E000491EC2B20C0604EBD010401C4008802A04
:1002F00002D003E0002010BD20F00100002900DA48
:100300000020184310BD30B480EA010202F000451D
:1003100030F0004221F0004013D090B1C30DD40D55
:10032000C2F31601C0F31600E41A41F4000140F4D0
:1003300000027D34914201D3641C00E04900002C8E
:1003400002DA30BC002070474FF4000000239142D5
:1003500001D3891A034340084FEA4101F7D151B153
:10036000914202D14FF0004105E002D24FF001016D
:1003700001E06FF0010103EBC450284430BC00F0F1
:10038000A3BA420005D0C0F3C7525242914201DCE9
:100390000020704700EBC15070472DE9FE4F8046AA
:1003A00081EA0300C00F0C46009021F0004123F0C9
:1003B0000045B8EB0200A94105D2404621469046CF
:1003C0001C460B46024623F00040104347D0270D41
:1003D000C7F30A00C3F30A510290401A0190402863
:1003E0006BDAC3F3130040F4801B0098924620B1EF
:1003F0000023D2EB030A63EB0B0B01985946C0F1C3
:100400004002504600F03FFA06460D465046594617
:10041000019A00F047FA10EB08006141002487EAD6
:10042000115284EAE7731A4340D0009A62B3019AEA
:10043000012A4FEA075215DC001B61EB02014FF065
:10044000004202EA0752CDE90042001C41F580114A
:1004500032462B4600F07EFA03B0BDE8F08F4046EE
:100460002146F9E7001B61EB0201001C41F58013F6
:1004700000185B412018A2F5001747EB030140EA82
:10048000D570B6196D4111E06D084FEA360645EAA0
:10049000C0754FEA0752001B61EB0201001C41F5D9
:1004A000801149084FEA30000019514132462B466D
:1004B00003B0BDE8F04F00F03EBA009801224000C2
:1004C0000023D0EB020263EBE073009821464FEA71
:1004D000E074B8EB000061EB0401E9E783F000434E
:1004E0005BE781F0004158E72DE9FE4F81EA030404
:1004F00004F0004421F0004100944FF0000B23F081
:10050000004350EA01045ED052EA03045BD0C3F317
:100510000A54C1F30A552C44A4F2F3340194A0FB0D
:100520000254C1F3130141F48011C3F3130343F4E4
:10053000801301FB024400FB034E840A970A44EA3D
:10054000815447EA8357A4FB076802958D0A05FB8F
:1005500007854FEA932C04FB0C542705029D4FEAB4
:10056000065847EA1637B5EB08056EEB070C870E01
:10057000920E47EA811742EA8312A7FB0201B6EB0B
:100580000B0164EB00042B0D43EA0C335E1844EBC3
:100590001C50DA465146E7FB0201C5F313044FEA4B
:1005A0000B3343EA14534FEA0432019C43EA060337
:1005B000A4F10C040294009CCDE900B400F0CAF947
:1005C00003B0BDE8F08F00200146F9E72DE9F04DBA
:1005D00081EA030404F0004B21F0004514464FF07B
:1005E000000A23F0004150EA050220D054EA01023B
:1005F0001DD0C5F30A570246C5F31303C1F3130018
:10060000C1F30A5640F4801543F48013A7EB0608A3
:10061000101BD64608F2FD3873EB050002D308F133
:10062000010801E092185B41B8F1000F03DA0020E5
:100630000146BDE8F08D00204FF480110646844647
:100640000EE0171B73EB050705D3121B63EB0503C5
:1006500006434CEA010C49084FEA300092185B410E
:1006600050EA0107EDD152EA030012D082EA0400F9
:1006700083EA0501084305D0101BAB4106D20122D5
:10068000002306E000224FF0004302E06FF0010279
:1006900053101AEB06004CEB085110EB0A0041EB2B
:1006A0000B01BDE8F04D00F046B970B521F00043F4
:1006B00003430CD0C1F30A550024D5EB040564EBC9
:1006C0000403D617AD1AB34102DB0020014670BD0A
:1006D000201841EB025170BDC10F80EAE070084460
:1006E000CA079623002100F0F8B89623002211468D
:1006F00000F0F3B80EB540F2334102910021CDE98C
:1007000000110A460B4600F025F903B000BD00F0C9
:10071000004220F00040C10DC0F3160040F400007C
:100720007F2901DA00207047962903DCC1F1960188
:10073000C84001E096398840002AF4D04042704712
:1007400020F00040C10DC0F3160040F400007F29E6
:1007500001DA00207047962903DCC1F19601C840F8
:10076000704796398840704700F0004230F00040F2
:100770000AD0C10D01F56071C0F3160042EA0151C3
:10078000C20840071143704700200146704700002F
:1007900030B5041E71F1000404DB4FF00044404208
:1007A00064EB0101141E73F1000405DB1C464FF0DD
:1007B0000043524263EB0403994208BF904230BDAC
:1007C00001F0004330B421F0004150EA010206D0AC
:1007D0000A0DA2F56072C1F31301002A02DC30BCDD
:1007E00000207047440F44EAC104C100E01830BC47
:1007F00000EBC25000F068B830B50B46014600204F
:100800002022012409E021FA02F59D4205D303FAD2
:1008100002F5491B04FA02F52844151EA2F1010253
:10082000F1DC30BD2DE9F05F0546002092469B4685
:1008300088460646814640241BE0284641464746F6
:100840002246FFF7A0FC53465A46C01A914110D3E6
:1008500011461846224600F016F82D1A67EB0108DB
:100860004F4622460120002100F00DF817EB000949
:100870004E41201EA4F10104DFDC484631462A46E1
:100880004346BDE8F09F202A04DB203A00FA02F13B
:10089000002070479140C2F1200320FA03F319436E
:1008A00090407047202A06DBCB17203A41FA02F02D
:1008B00043EAE07306E041FA02F3D040C2F12002BD
:1008C00091400843194670470029A8BF7047401C53
:1008D000490008BF20F00100704710B4B0FA80FC56
:1008E00000FA0CF050EA010404BF10BC704749B193
:1008F000CCF1200421FA04F411FA0CF118BF012103
:1009000021430843A3EB0C01CB1D4FEA00614FEAE2
:10091000102042BF002010BC704700EBC3501044B1
:100920000029A4BF10BC7047401C490008BF20F03C
:10093000010010BC704710B5141E73F1000408DAF2
:10094000401C41F1000192185B411A4301D120F093
:10095000010010BD2DE9F04D92469B4611B1B1FA50
:1009600081F202E0B0FA80F220329046FFF78BFF6E
:1009700004460F4640EA0A0041EA0B0153465A4634
:10098000084313D0114653EA010019D0C8F14002C0
:100990005046FFF7F8FB05460E465046594642467C
:1009A000FFF771FF084305D0012004E020463946D7
:1009B000BDE8F08D0020054346EAE0762C4337433E
:1009C0000A986305E40AA0EB08000022FD0A44EA45
:1009D00047540A3002D500200146E9E70105101905
:1009E0006941DDE9084500196941BDE8F04DA2E71C
:1009F000C1F30A52C1F3130140F2FF3341F48011F5
:100A00009A4202DA00200146704740F233439A428C
:100A1000A2F2334202DC5242FFF7B5BBFFF733BF0D
:100A2000064C074D06E0E06840F0010394E807003B
:100A300098471034AC42F6D3FFF75CFB188B0008E4
:100A4000388B00082DE9F04D00231A461B1A8A4105
:100A500003DB00200146BDE8F08DC1F30A52C1F36B
:100A6000130141F480154FF0000BD10702D100189B
:100A70006D41521E0027044640F2FF11384601EB3B
:100A8000620A3E468046024600204FF48011FFF77E
:100A90007AFBC2197141BB1846EB0100B4EB030CA1
:100AA00075EB000C04D3E41A65EB000517460E46FF
:100AB000241908F101006D4180463428E3DDF9195D
:100AC00046EB0600091BA84103D24FF0FF32134644
:100AD00001E0002213461BEB070046EB0A51BDE87C
:100AE000F04DFFF728BF000070B50446006881682C
:100AF000C943C90717D1816821F00101816000F065
:100B000069FC05460AE000BF00F064FC401B0228B7
:100B100004D920688068C043C00706D02068806878
:100B2000C043C007F0D0002070BDA06A40F01000A4
:100B3000A062E06A40F00100E062012070BD0000A8
:100B4000F8B500260446009600688168C943C907C5
:100B50002DD0816841F00101816016481649006876
:100B6000B0FBF1F000E0401E00900028FBD100F047
:100B700031FC054616E000BF00F02CFC401B0228AB
:100B800010D920688068C043C0070BD0A06A40F02D
:100B90001000A062E06A40F00100E06284F8246086
:100BA0000120F8BD20688068C043C007E4D1002060
:100BB000F8BD00005400002040420F00FEE77047DF
:100BC0004FF4805000F0F8BA102000F0F5BA72B679
:100BD000FEE70000F8B50024009490F82420254694
:100BE000012A12D0012280F824204A681F23072AF4
:100BF0000DD20668776B521E02EB820293409F4330
:100C00000B6893401F43776319E00220F8BD066824
:100C10000D2A0AD2376BD21F02EB820293409F4308
:100C20000B6893401F43376309E0F76A0D3A02EB04
:100C3000820293409F430B6893401F43F7620A6808
:100C4000072306680A2A0AD3F7680A3A02EB420227
:100C500093409F438B6893401F43F76008E03769D8
:100C600002EB420293409F438B6893401F433761DE
:100C70000A68102A01D0112A20D1124B02689A4228
:100C800017D193681B0219D4936843F4000393604F
:100C90000968102912D10C490C4A0968B1FBF2F11C
:100CA00001EB8101490000E0491E00910029FBD1C0
:100CB00004E0816A41F020018162012480F824501F
:100CC0002046F8BD002401405400002040420F009F
:100CD0000068C06C704700002DE9F0414FF000073C
:100CE00004003D467ED0A06A002628B9E66284F85A
:100CF0002460204600F07EF82046FFF7F5FEA16A4A
:100D0000C90600D420B1A06A40F01000A06269E0DA
:100D1000A16A21F4885141F00201A1626268E1698F
:100D2000237B0A4347EA43010A43A1684FF48077D3
:100D3000B94209D0012907D05FF0000194F814C02E
:100D4000BCF1010F02D00AE03946F7E7F3B1A36A1C
:100D500043F02003A362E36A43F00103E3622368E4
:100D6000D3F804C02CF4694C4CEA010CC3F804C05D
:100D700021688B68DFF870C003EA0C0313438B60B3
:100D8000A168B9420BD0012909D00CE0DFF85CC0A2
:100D9000A3690CEB43330B4343F40061DFE7218A83
:100DA0000D05A5F580152168CB6A23F470032B434C
:100DB000CB62216889680E4B1940914208D1E662E6
:100DC000A16A21F0020141F00101A162BDE8F081B8
:100DD000A06A20F0020040F01000A062E06A40F03B
:100DE0000100E0620120F1E7FDF7E1FF00E0FFFF15
:100DF000FE0E1FFF00B585B0002100910191029108
:100E0000039100680E49884218D10E48816941F467
:100E100080618161816901F480610491816941F09F
:100E2000040181618069694600F00400049010208B
:100E3000009003200190044800F0CAF905B000BDFD
:100E40000028014000100240000801402DE9F8434D
:100E500000270D460446009700F0BCFA8046206843
:100E60008168C90508D5A06A40F02000A06284F816
:100E700024700120BDE8F8834168C90503D4C06A25
:100E800010F4700F2AD0022000F042FB3B490968A1
:100E9000B1FBF0F62068036939490B424FEA610162
:100EA0004FEAA1121FD1C3684FEA611C13EA0C0F6D
:100EB00019D103690B4225D1C068104222D11420F8
:100EC00023E0681C0AD02DB100F084FAA0EB0800E2
:100ED000A84203D920680068800725D520680068EB
:100EE0008007EED52DE003690B4202D1C1681142A3
:100EF00006D0026923490A4206D1C068084203D1DC
:100F0000542002E0292000E0FC204643009816E02F
:100F1000681C11D02DB100F05DFAA0EB0800A842CA
:100F20000AD90098B04207D2A06A40F00400A0623B
:100F300084F8247003209DE70098401C0090B04284
:100F4000E6D321686FF012000860A06A40F40070D8
:100F5000A06220688068C0F3424007280CD1207B43
:100F600050B9A06A20F48070A062A06AC00403D4C3
:100F7000A06A40F00100A06200207BE7540000203E
:100F8000244992244992240070B5044690F8240024
:100F900001280DD0012084F824002046FFF7D0FD61
:100FA00002004FF0000005D084F82400104670BD08
:100FB000022070BDA16A40F20123994341F480717F
:100FC000A1621F4D23681F49AB4218D10E6816F469
:100FD000702F14D0A66A46F48016A6620E687605B5
:100FE00005D5A66A26F4005646F48056A662A66A7F
:100FF000F6040AD5E66A26F00606E66206E0A66A68
:1010000026F48016A6625E68E9E7E06284F82400B0
:101010006FF00200186020688368C3F34243072B17
:1010200005D1A84208D1096811F4702F04D0816855
:1010300041F480118160B9E7816841F4A001F9E7CA
:10104000002801400424014010B590F8211000222E
:10105000022905D00421816380F82020012010BDE1
:1010600001680B6823F00E030B6001680B6823F026
:1010700001030B6090F84030C46B012101FA03F3C7
:10108000636080F8211080F82020104610BD000019
:1010900010B590F821100024022903D004218163A7
:1010A00001243DE001680A6822F00E020A6001682E
:1010B0000A6822F001020A601A4A0168914201D1CD
:1010C000012121E0174A1432914201D110211BE085
:1010D000144A2832914201D1891515E0114A3C3257
:1010E000914201D189140FE00E4A5032914202D14F
:1010F0004FF4803108E00B4A6432914202D14FF440
:10110000801101E04FF08071064A083A51600121D8
:1011100080F82110002180F82010416B01B1884730
:10112000204610BD0800024070B5044600F052F998
:101130000546601C02D004480078044400F04AF9D7
:10114000401BA042FAD370BD480000202DE9F041B9
:10115000154E164C4FF4005510280DD06F10B842A4
:1011600020D10A20FFF7E0FF3946114800F020F9AE
:10117000002817D120700DE00A20FFF7D5FF1021BD
:101180000C4800F015F901280CD12278052A07D067
:10119000521C227029463046BDE8F04100F00DB9DE
:1011A0000120E7E7BDE8F0810010014002000020C7
:1011B00000080140000C0140044910B50A680242D1
:1011C00002D00860FFF7C2FF10BD00001404014008
:1011D0002DE9F84FDFF8B8910024A9F1040B23465C
:1011E0000F2709F1040AABF1040EC9E00125A5405F
:1011F0002A40AA427DD1674ED1F804C0ACEB060864
:10120000B44532D014DCBCF1030F3AD009DCBCF198
:10121000000F2AD0BCF1010F1CD0BCF1020F31D15C
:101220001DE0BCF1110F17D0BCF1120F2AD119E04B
:10123000B8F5881F19D006DCB8F5803F15D0B8F591
:10124000801F1FD111E0B8F5001F0ED0B8F5041FA4
:1012500018D10AE0CB6815E0CB681B1D12E0CB6803
:1012600008330FE0CB680C330CE08B682BB1012BFB
:101270004FF0080303D0456104E0042302E0056158
:1012800000E00023FF2A01D8064601E000F1040631
:101290004FEA840501D9A5F12005D6F8008007FAA8
:1012A00005FC28EA0C0803FA05F548EA0508C6F823
:1012B00000804D68ED0062D5374DAE6946F00106FD
:1012C000AE61AD6924F0030605F001050095334DCC
:1012D00006EB050CDCF80850A607360F07FA06F8EF
:1012E00025EA0805DFF8B880404503D14FF0000833
:1012F00017E044E0DFF8AC80404502D14FF0010830
:101300000FE0DFF8A480404502D14FF0020808E06A
:10131000DFF89880404502D14FF0030801E04FF01C
:10132000040808FA06F848EA0508CCF808804D6871
:10133000D9F80060ED024D4601D5164300E0964312
:101340002E604D68DAF80060AD02554601D51643AF
:1013500000E096432E604D68DBF80060AD035D460B
:1013600001D5164300E096432E604D68DEF800601C
:10137000ED03754601D5164300E096432E60641CCC
:101380000D682A46E5407FF431AFBDE8F88F0000D4
:10139000080401400000111000100240000001404C
:1013A00000080140000C0140001001400014014001
:1013B0008068084000D001207047C26821EA02031B
:1013C0000A4043EA0241016170470AB10161704776
:1013D0000904FBE7014880687047000048000020CE
:1013E00002488168027811448160704748000020FB
:1013F000074810B5016841F010010160032000F0BA
:1014000075F8012000F006F800F024F8002010BD67
:101410000020024070B50D4D04464FF47A712878D3
:10142000B1FBF0F00A490968B1FBF0F000F0A4FB51
:1014300048B9102C07D200222146501E00F036F881
:1014400000206C6070BD012070BD000048000020CD
:10145000540000200C4808B5816941F00101816108
:10146000816901F001010091C16941F08051C161C0
:10147000C06900F0805000900448416821F0E061AC
:1014800041F00071416008BD0010024000000140C1
:10149000002809DB00F01F02012191404009800073
:1014A00000F1E020C0F8001170470000F0B40E4BCE
:1014B0001B680C46C3F30223C3F10705042D00D9B2
:1014C0000425191D072901D2002300E0DB1E012697
:1014D00006FA05F1491E214099409E40761E1640AD
:1014E0003143F0BC02F098BD0CED00E0064900F07D
:1014F000070208684FF6FF03184040EA0220034A3B
:1015000010430860704700000CED00E00000FA0591
:1015100010B501460020234C012922D0022939D0E0
:1015200010291DD161682268D20119D51E48C1F366
:101530008342C903805C0AD561681B4AC1F34041FC
:10154000921E515C194AB2FBF1F1484301E018497F
:1015500048436168490203D440000321B0FBF1F025
:1015600010BD226AC2F30121012903D1920701D5DE
:10157000C80310BD022905D1626A920702D549F657
:10158000404010BD0329FCD121688903F9D54FF2F1
:10159000244010BD00F02AF96168C1F38131491C73
:1015A0004900DBE7001002404C75000800127A0089
:1015B00000093D002DE9F84305460078354CC00789
:1015C00054D0E0690026C00008D4E06940F08050A3
:1015D000E061E069012600F0805000902E4801682B
:1015E000C90512D40168804641F480710160FFF79B
:1015F000F1FE074605E000BFFFF7ECFEC01B6428C4
:1016000023D8D8F80000C005F6D5206A10F4407041
:1016100021D0A98801F4407181421CD0206A1F4961
:10162000012220F440700A6000220A602062C00794
:1016300011D0FFF7CFFE074641F2883808E000BF1F
:10164000FFF7C8FEC11B414502D90320BDE8F8835E
:10165000206A8007F4D5206A696820F44070084346
:1016600020621EB1E06920F08050E0612878800798
:1016700005D56068A96820F4404008436060287878
:10168000C00605D56068E96820F480000843606002
:101690000020DBE70010024000700040400442429E
:1016A0002DE9F0470F46050061D0434E306800F049
:1016B0000700B84209D2306820F007003843306094
:1016C000306800F00700B84251D128683B4C8107D0
:1016D00012D5400703D5606840F4E0606060287868
:1016E000000703D5606840F4605060606068A968D6
:1016F00020F0F000084360602878C00728D06868B0
:10170000012810D02168022810D0890700292EDA7C
:10171000616821F0030101436160FFF75BFE8046D1
:1017200041F288390DE021688903EFE78901EDE78F
:10173000FFF750FEA0EB0801494502D90320BDE8A0
:10174000F0876068696800F00C00B0EB810FEFD1A2
:10175000306800F00700B8420BD9306820F007006D
:1017600038433060306800F00700B84201D00120F3
:10177000E5E72878400705D56068E96820F4E0606F
:10178000084360602878000706D56068296920F45E
:10179000605040EAC100606000F038F86168084AB3
:1017A000C1F30311515CC84006490860064800684F
:1017B000FFF730FE0020C2E7002002400010024088
:1017C0005C750008540000204C00002004480549C6
:1017D00000684968044AC1F30221515CC84070475F
:1017E00054000020001002406C75000804480549B0
:1017F00000684968044AC1F3C221515CC84070477F
:1018000054000020001002406C7500080E4A516818
:101810000E4801F00C03042B11D0082B0FD10C48FB
:10182000C1F38343C903C05C0AD55168084AC1F3B8
:101830004041921E515C054A5043B0FBF1F07047A5
:1018400004494843704700000010024000127A002B
:101850003A75000800093D002DE9F84F040070D0EA
:101860002078C04DC00749D06868C0F381000128C6
:1018700007D06868C0F38100022809D16868C003F6
:1018800006D52868800339D560680028E7D035E0A0
:101890006068B0F5803F0BD010B1B0F5A02F11D02B
:1018A000286820F480302860286820F4802002E036
:1018B000286840F480302860606890B1FFF78AFDA6
:1018C00006460AE0286840F480202860F0E700BF60
:1018D000FFF780FD801B642873D828688003F7D544
:1018E0000CE0FFF777FD064605E000BFFFF772FD4D
:1018F000801B6428F0D828688003F7D420789A4E9B
:1019000080074FF001094FF0000839D5686810F0E2
:101910000C0F07D06868C0F38100022809D16868FD
:10192000C00306D42868800714D52069012808D18F
:1019300010E02069B0B1C6F80090FFF74BFD0746F4
:1019400005E00AE1FFF746FDC01B0228C4D828685D
:101950008007F7D52868616920F0F80040EAC100E7
:1019600028600DE0C6F80080FFF734FD074604E06C
:10197000FFF730FDC01B022823D828688007F7D462
:10198000207800072CD57948A169D9B1C0F800901A
:10199000FFF720FD074604E0FFF71CFDC01B0228EF
:1019A0000FD8686A8007F7D571484FF4FA5100687C
:1019B000B0FBF1F0009000BF0098411E0091FAD2F8
:1019C0000EE080E0C0F80080FFF704FD074604E069
:1019D000FFF700FDC01B022875D8686A8007F7D49E
:1019E0002078400760D5E8690027C00008D4E8697E
:1019F00040F08050E861E869012700F080500090D5
:101A00005C480168C90513D40168834641F48071BC
:101A10000160FFF7DFFC824606E000BFFFF7DAFC5B
:101A2000A0EB0A0064284ED8DBF80000C005F5D50D
:101A3000E06801280AD008B1052813D0286A20F0F0
:101A400001002862286A20F0040002E0286A40F0C1
:101A500001002862E06841F2883B98B1FFF7BAFCC8
:101A600082460BE0286A40F004002862EEE700BFDF
:101A7000FFF7B0FCA0EB0A0159455AD8286A800745
:101A8000F6D50CE0FFF7A6FC824605E0FFF7A2FCC6
:101A9000A0EB0A0159454CD8286A8007F6D41FB13B
:101AA000E86920F08050E861E06988B36968C1F3B3
:101AB0008101022944D00228C6F8608004D0FFF7D3
:101AC00089FC044638E034E0FFF784FC074604E074
:101AD000FFF780FCC01B02282BD828688001F7D4B0
:101AE000206AB0F5803F05D16868A16820F4003015
:101AF00008436860D4E908010843696821F4741157
:101B000008436860C6F86090FFF764FC044606E08E
:101B100025E000BFFFF75EFC001B022809D82868FB
:101B20008001F7D51BE000BFFFF754FC001B022823
:101B300002D90320BDE8F88F28688001F4D40EE0B4
:101B40000128F7D06868226A00F48031914204D1FC
:101B5000616A00F47010884201D00120EAE7002099
:101B6000E8E70000001002400000424280044242C8
:101B7000540000200070004010B5401EB0F1807F7E
:101B800001D3012010BD4FF0E02460610F216017E8
:101B900002F042FA0020A06107202061002010BD61
:101BA0007047704710B590F83C20012A22D00122DE
:101BB00080F83C20CA688C6822F4407222434C684A
:101BC00022F4806222430C6822F4006222430C69F2
:101BD00022F4805222434C6922F400522243C96904
:101BE000002322F480420A4301684A6480F83C30B2
:101BF000002010BD022010BD70B590F83C20012AD5
:101C000026D0012480F83C40022280F83D20036861
:101C10005A689D6822F070060A6832435A600D4B7C
:101C200002689A4208D0B2F1804F05D00A4B9A421E
:101C300002D00A4B9A4204D1496825F08003194327
:101C4000916080F83D40002180F83C10084670BD4E
:101C5000022070BD002C014000040040000800403C
:101C600010B5040003D094F83D0010B107E0012046
:101C700010BD002084F83C00204600F01FF8022030
:101C800084F83D00211D206801F0A2FE012084F8A7
:101C9000460084F83E0084F83F0084F8400084F851
:101CA000410084F8420084F8430084F8440084F83A
:101CB000450084F83D00002010BD000008B5006814
:101CC0000B49884212D10B48816941F4006181615E
:101CD0008069002200F40060009011461920FFF78F
:101CE000E5FBBDE808401920FFF7D2BB08BD0000A6
:101CF000002C01400010024090F83D10012901D055
:101D000001207047022180F83D100168CA6842F046
:101D10000102CA6000680B49884208D0B0F1804FC8
:101D200005D00949884202D00849884204D1816817
:101D300001F00701062903D0016841F001010160AB
:101D400000207047002C01400004004000080040C3
:101D500070B5044690F83C000025012817D00126F4
:101D600084F83C60022084F83D002068826822F0FC
:101D7000770222F47F4282600868502838D00DDC58
:101D800020284FD005DC90B3102811D14AE0022062
:101D900070BD302846D040280AD13BE060282FD0C3
:101DA00070280DD0B0F5805F03D0B0F5005F12D081
:101DB000012584F83D60002084F83C00284670BD71
:101DC000CB68D1E90121206801F04BFE20688168D1
:101DD00041F0770109E0CB68D1E90121206801F0E9
:101DE00040FE2068816841F480418160E1E719E0AC
:101DF000CA684968206801F0E9FE5021206806E0C1
:101E0000CA684968206801F0F2FE6021206801F08C
:101E100032FECEE7CA684968206801F0D7FE40214B
:101E20002068F4E7226801461046F0E72DE9F0410A
:101E30000D46040003D094F83D0018B108E00120DD
:101E4000BDE8F081002084F83C00204600F040F816
:101E5000022084F83D002068816844F20702914323
:101E60008160211D206801F0B3FD226890689169AE
:101E7000166A2B68AF69034340F20330814341EA9D
:101E80000721A868EF6908434FF6FC418843E968D9
:101E900040EA0720014328692F6A000140EA073021
:101EA000084369686D6926F0220646EA051529434C
:101EB00093602268906154F8460B0162012004F897
:101EC0001F09E0752076E0762077A0750020B7E73F
:101ED00000B585B000210091019102910391026843
:101EE00023480121B2F1804F24D0224B9A421FD1C6
:101EF000C26942F00402C261C26902F004020492A3
:101F0000826942F0080282618069029100F0080053
:101F10000490C020009069461748FFF759F9002245
:101F200011461E20FFF7C2FA5FF01E00FFF7B0FA5D
:101F300005B000BDC26942F00102C261C26902F08F
:101F400001020492826942F0040282618069029176
:101F500000F0040004900320009069460748FFF752
:101F600037F9002211461C20FFF7A0FA1C20DDE7FC
:101F70000010024000080040000C01400008014031
:101F800070B590F83E60044690F83F5090F84230AB
:101F900090F84320022021B104290ED0012E1BD13C
:101FA00014E0012E18D1012B16D184F83E0084F8DC
:101FB000420001220021206820E0012D0CD1012ADD
:101FC0000AD184F83F0084F8430014E0012D03D1C6
:101FD000012B01D1012A01D0012070BD84F83E00FF
:101FE00084F83F0084F8420084F843000122002175
:101FF000206801F029FD01220421206801F024FD60
:102000002068016841F001010160002070BD704747
:102010002DE9F04104460068C66805694FF00007E5
:10202000A90713D5B10711D5F91E01610120207749
:10203000206880698007204602D0FFF7E8FF04E0AF
:1020400000F0A4F8204600F036F92777680716D587
:10205000700714D521686FF0040008610220207712
:102060002068806910F4407F204602D0FFF7CFFF40
:1020700004E000F08BF8204600F01DF927772807D0
:1020800015D5300713D521686FF0080008610420CA
:1020900020772068C0698007204602D0FFF7B7FF8D
:1020A00004E000F073F8204600F005F92777E80611
:1020B00016D5F00614D521686FF0100008610820CD
:1020C00020772068C06910F4407F204602D0FFF7D7
:1020D0009EFF04E000F05AF8204600F0ECF8277765
:1020E000E80708D0F00706D021686FF0010008610A
:1020F000204600F02FF9280608D5300606D52168BD
:102100006FF0800008612046FFF74AFD680608D599
:10211000700606D521686FF040000861204600F087
:10212000B7F9A8060AD5B00608D521686FF02000D7
:1021300008612046BDE8F041FFF733BDBDE8F081FE
:1021400000B585B0002100910191029103910068D2
:102150000B49884212D10B48816941F00401816129
:102160008069694600F0040004904FF4106000900C
:102170000220019003900448FFF72AF805B000BD43
:10218000002C01400010024000080140704770B56B
:10219000044690F83C0000260D4601280FD001208F
:1021A00084F83C006AB1042A1DD0082A2FD00C2ADA
:1021B0003FD00126002084F83C00304670BD02204C
:1021C00070BD206801F060FC2068816941F0080161
:1021D00081612068816921F0040181612068816941
:1021E0002A69114311E0206801F076FC20688169BA
:1021F00041F4006181612068816921F4806181611D
:10220000206881692A6941EA02218161D2E7206858
:1022100001F08EFC2068C16941F00801C1612068AD
:10222000C16921F00401C1612068C1692A691143B3
:1022300011E0206801F0A8FC2068C16941F4006148
:10224000C1612068C16921F48061C1612068C169F0
:102250002A6941EA0221C161ACE710B5040003D04C
:1022600094F83D0010B107E0012010BD002084F873
:102270003C00204600F01EF8022084F83D00211D9D
:10228000206801F0A5FB012084F8460084F83E0098
:1022900084F83F0084F8400084F8410084F842004C
:1022A00084F8430084F8440084F8450084F83D0035
:1022B000002010BD7047704710B50446022249B196
:1022C00004290ED0082913D094F84100012816D013
:1022D000012010BD94F83E000128F9D184F83E2079
:1022E0000FE094F83F000128F2D184F83F2008E085
:1022F00094F840000128EBD184F8402001E084F8F4
:1023000041200122206801F09FFB0F49206888428C
:1023100003D1426C42F4004242642068884208D0F3
:10232000B0F1804F05D00949884202D0084988425F
:1023300004D1816801F00701062903D0016841F04A
:1023400001010160002010BD002C0140000400408C
:10235000000800402DE9F05F414988427DD1414CA1
:102360002078401CC6B20520B6FBF0F100FB1160DE
:1023700026700025F0BB3C480268506A3B4900B219
:1023800060800B685B6A1FB2A780556209684D6266
:102390004042FEF7A1F9DFF8D8A05146FDF781FFD2
:1023A000FEF7E2F9DFF8CC804FF0333B5A46434664
:1023B000FEF70CF9DFF8C09000224B46FEF706F955
:1023C000AA1EFEF772F9FEF7FBF9A0603846FEF789
:1023D00083F95146FDF765FFFEF7C6F95A464346B5
:1023E000FEF7F4F800224B46FEF7F0F8AA1EFEF7BF
:1023F0005CF900E002E0FEF7E3F9E0600A20B6FBDA
:10240000F0F100FB1160002827D1A068FEF7ACF9BD
:102410001A4A1B4BFEF768F800221A4BFEF764F8C5
:1024200006460F462069FEF79FF932463B46FDF708
:10243000B4FFFEF7C5F920611348E16801F04CFADA
:10244000FEF765F906461148A16801F045FAFEF766
:102450005EF9314601F088F82570BDE8F09F000074
:102460003401002034000020C40100207C01002041
:102470000000C84233332340000026407B14AE479F
:10248000E17A943F00003640BC0300209C0300200A
:102490007047704770470000F8B501680446086847
:1024A000CA684B6910F00F0F4FF0000559D003F0C8
:1024B000010602F49077374365D0C10705D0D105F6
:1024C00003D5616C41F001016164410705D5D9076D
:1024D00003D0616C41F002016164810705D5D90721
:1024E00003D0616C41F004016164010707D502F07B
:1024F0002001314303D0616C41F008016164616CDB
:1025000000293AD0800604D5900602D5204601F075
:10251000AFFB20684069616CC0F38010090700D4EC
:1025200060B3204601F07DFB20684069400621D55C
:102530002068143050E8001F21F0400140E80012EC
:10254000002AF5D1E06BA8B16D494163E06BFEF75D
:102550009FFD002811D0E06B416B01B0BDE8F04059
:10256000084783060FD593060DD52046BDE8F840F1
:1025700001F07EBB2046FFF78DFFF8BD2046FFF738
:1025800089FF6564F8BD266B2023012E7CD1C60629
:102590007AD5D60678D508684868009048694FF023
:1025A0000206400640D5E16B086840680004000C54
:1025B000E8D0A28D8242E5D9E085886920282DD017
:1025C00020680C3050E8001F21F4807140E80012B0
:1025D000002AF5D12068143050E8001F21F00101D5
:1025E00040E80012002AF5D12068143050E8001F9E
:1025F00021F0400140E80012002AF5D184F8423071
:10260000256320680C3050E8001F21F0100140E8DD
:102610000012002AF5D1E06BFEF716FD6663A08D6F
:10262000E18D401A81B22AE0A08DE18D401A81B27D
:10263000E08D0028A6D00029A4D022680C3252E8F0
:10264000000F20F4907042E80007002FF5D12068B9
:10265000143050E8002F22F0010240E80027002F3C
:10266000F5D184F84230256320680C3050E8002F03
:1026700022F0100240E80023002BF5D166632046CB
:10268000FFF707FFF8BDFFE705062BD5150629D58F
:1026900094F841002128F5D1A068B0F5805F01D100
:1026A0002069B0B1206A411C21622168007848602D
:1026B000E08C401E0004000CE084E3D12068C16877
:1026C00021F08001C1602068C16841F04001C16013
:1026D000D8E7206A0088C0F308004860206A801CA0
:1026E0002062E5E74006CDD55006CBD5CA68204626
:1026F00022F04002CA6084F8413000F0E5F9C1E7F9
:10270000133C000870B5040004D094F84100002583
:1027100010B106E0012070BD84F84050204600F062
:1027200023F8242084F841002068C16821F4005176
:10273000C160204601F0FEFA2068016921F4904151
:1027400001612068416921F02A0141612068C16866
:1027500041F40051C1606564202084F8410084F890
:1027600042006563002070BD70B586B000240094FF
:1027700001940294039403682E482D4E02210322F3
:102780000515B34226D1836943F48043836183698D
:1027900003F480430493836943F0040383618069F5
:1027A000254E00F0040004900802CDE900010392D8
:1027B00069463046FEF70CFDCDE9005469463046C7
:1027C0000294FEF705FD002211462520FEF76EFE5D
:1027D000252028E0194EB34227D1C36943F4802352
:1027E000C361C36903F480230493836943F008033E
:1027F00083618069CDE9005100F00800CDE9032034
:102800000F4D69462846FEF7E3FCE814CDE90004C5
:10281000694628460294FEF7DBFC00221146272079
:10282000FEF744FE2720FEF733FE06B070BD000021
:1028300000380140001002400008014000480040FC
:10284000000C01402DE9F84F044690F842009A46EA
:1028500016460D46202802D00220BDE8F88FB5B1FB
:10286000AEB100206064222184F842102063FEF79C
:10287000B1FDA6858146E685A0684FF480582027E3
:10288000404501D1206920B12E46002529E00120D4
:10289000E3E7002625E04B46002220212046CDF824
:1028A00000A001F0BEFA18B184F842700320D4E70A
:1028B00026B1A06840451AD038B108E020684068C9
:1028C000C0F3080025F8020B08E0206978B1206801
:1028D000406800F07F0000BF06F8010BE08D401E4D
:1028E000E085E08D0028D6D184F84270B5E72068F5
:1028F0004068F1E790F84230202B01D00220704769
:1029000021B11AB10023036301F070BA01207047AE
:102910002DE9F0473A4988426FD13A4C01263A4FA7
:1029200020783A4D572804D13E702968084600F0B7
:1029300055FE20784FF00008532807D187F8008013
:10294000286880F00040014600F048FE20785028BA
:1029500003D10021084600F041FE2078DFF8B09056
:10296000442807D1286849460746FDF7CCFC39467C
:1029700000F034FE2078412808D1286849460546F1
:10298000FDF7C1FC0146284600F028FE20782B28E0
:1029900001D100F0A1FD20782D2801D100F0C0FD6B
:1029A00022781C491C4C282A07D0292A0CD01B4805
:1029B0004D2A11D0422A17D018E0194A20689042B7
:1029C00014DAFDF716FC05E0164A206890420DD295
:1029D000FDF761FC206009E00178052902D0491C5F
:1029E000017003E0067001E080F80080BDE8F04768
:1029F000012204490248FFF77DBFBDE8F0870000CF
:102A00005402002003000020580000205C00002039
:102A1000000040400000B4421C04002002000020DE
:102A20000000B2420000B2C22DE9F843044690F81B
:102A30004100984616460D46202802D00220BDE8E7
:102A4000F88385B17EB100206064212084F84100C4
:102A5000FEF7C0FCA6848146E684A0682027B0F576
:102A6000805F02D003E00120E9E7206910B12E4623
:102A700000250EE000260CE08021204601F0D1F96F
:102A8000A8B9C6B116F8010B21684860E08C401E59
:102A9000E084E08C4B464FF00002CDF80080002827
:102AA000EAD14FF04001204601F0BBF940B184F873
:102AB00041700320C3E735F8020BC0F30800E3E7D9
:102AC00084F841700020BAE770470000064908B555
:102AD0000968064AC908B1FBF2F14143009100BF01
:102AE000491E0091FBD208BD5400002040420F0057
:102AF00070B5204D0024012220212846FEF765FCF8
:102B00000F20FFF7E3FF002220212846FEF75DFC9F
:102B1000194E1A4D07E00120641CFFF7D7FFB4429D
:102B200001D9174870BD40212846FEF741FC002816
:102B3000F1D0002408E00120641CFFF7C7FFB44275
:102B400002D94FF0404070BD40212846FEF730FCCE
:102B50000128F0D06000FDF7CDFD0A4A0A4BFDF7D1
:102B6000C3FC4FF0FF32FDF7A0FDBDE87040FDF75C
:102B700027BE0000000C0140A086010000080140B3
:102B8000000080BF4C37894160E5A03FFEE70000B0
:102B90002DE9F04101220C4DD40321462846FEF7D1
:102BA00014FC0122094F160331463846FEF70DFC8E
:102BB000002231463846FEF708FC21462846BDE88B
:102BC000F0410022FEF701BC00080140000C01406A
:102BD00070B50122D1030948FEF7F7FB084D4FF409
:102BE0008054002221462846FEF7EFFB2146284666
:102BF000BDE870400122FEF7E8BB0000000801407C
:102C0000000C014070B50122064DD4032146284630
:102C1000FEF7DBFB21462846BDE870400022FEF7A8
:102C2000D4BB00000008014070B5144D4FF480740F
:102C3000002221462846FEF7C8FB2A1D106820F016
:102C4000F0001060106840F0300010600022610059
:102C50002846FEF7BAFB022004F0CAFB01222146F7
:102C60002846FEF7B2FB022004F0C2FB21462846AC
:102C7000BDE870400022FEF7A8BB0000000C014038
:102C80007047000070B5144D4FF480740022214647
:102C90002846FEF79AFB2A1D106820F0F00010600D
:102CA000106840F030001060012251022846FEF703
:102CB0008CFB022004F09CFB012221462846FEF7F3
:102CC00084FB022004F094FB21462846BDE87040B6
:102CD0000022FEF77ABB0000000C01402DE9F0470E
:102CE00080461B480024016821F0F0010160016862
:102CF00041F08001016086152546071F4FF40079D9
:102D0000002231463846FEF760FB022004F070FBDB
:102D1000012231463846FEF758FB6006040E49464C
:102D20003846FEF745FB08B1641CE4B2022004F00B
:102D30005FFB6D1CEDB2082DE2D3B8F1000F04D09B
:102D4000FFF772FF2046BDE8F087FFF79BFFF9E72A
:102D5000040C01402DE9F04105461A48016821F0B4
:102D6000F0010160016841F0300101608615071F24
:102D7000002231463846FEF728FB00244FF4007845
:102D8000280601D5012200E0002241463846FEF720
:102D90001CFB6806050E012231463846FEF715FB7E
:102DA000022004F025FB002231463846FEF70DFBD9
:102DB000022004F01DFB641CE4B2082CE0D3BDE843
:102DC000F0810000040C014070B51448016821F046
:102DD000F0010160016841F0300101604415051FF8
:102DE000012221462846FEF7F0FA0122160231465A
:102DF0002846FEF7EAFA022004F0FAFA00222146F9
:102E00002846FEF7E2FA022004F0F2FA314628469C
:102E1000BDE870400022FEF7D8BA0000040C014063
:102E200070B51448016821F0F0010160016841F0BB
:102E3000300101608415051F002221462846FEF757
:102E4000C4FA6600002231462846FEF7BEFA022088
:102E500004F0CEFA012221462846FEF7B6FA0122F6
:102E600031462846FEF7B1FABDE87040022004F072
:102E7000BFBA0000040C01402DE9F04119480024BC
:102E8000016821F0F0010160016841F080010160FA
:102E90004615051F012231462846FEF796FA022004
:102EA00004F0A6FA0122170239462846FEF78DFAE9
:102EB000022004F09DFA08E0641CE4B2FA2C04D964
:102EC000FFF7AEFF0120BDE8F08131462846FEF74E
:102ED0006FFA0028F0D1002239462846FEF775FA2D
:102EE0000020F0E7040C014010B5FFF7C9FE802177
:102EF0006B2000F0C0F86420FEF716F900216B206B
:102F000000F0B9F8032000F082F8002000F07AF811
:102F1000322000F099F80021382000F0ACF80021B0
:102F20006A2000F0A8F80021232000F0A4F88021F6
:102F3000372000F0A0F8752000F011F8682801D0C3
:102F4000012010BD01216B2000F095F800216C20BC
:102F500000F091F8322000F077F8002010BD10B595
:102F60000446FFF731FFD020FFF7F4FEFFF784FFA0
:102F70002046FFF7EFFEFFF77FFFFFF725FFD12089
:102F8000FFF7E8FEFFF778FF0020FFF7A7FE0446F3
:102F9000FFF746FF204610BD2DE9F0411D461446BF
:102FA0000F460646FFF710FF7006000EFFF7D2FE31
:102FB000FFF762FF20B1FFF733FF0120BDE8F0818A
:102FC0003846FFF7C7FEFFF757FFFFF7FDFE01206A
:102FD00000EB4600C0B2FFF7BDFEFFF74DFF09E072
:102FE000012C0DD05FF00100FFF778FE641E05F89C
:102FF000010BE4B2002CF3D1FFF712FF0020DDE754
:103000000020F1E7C006010E1C2000F034B8C00615
:10301000010E1B2000F02FB8BC2801D3012110E0C5
:10302000622801D302210CE02A2801D3032108E001
:10303000142801D3042104E00A2801D3052100E06B
:1030400006211A2000F017B810B504464FF47A7024
:10305000844201D9044602E0042C00D20424B0FBCF
:10306000F4F0401EC1B2192000F005F86008BDE878
:103070001040FFF7D1BF70B50C460546FFF7A4FE20
:10308000D020FFF767FEFFF7F7FE50B92846FFF79D
:1030900061FEFFF7F1FE2046FFF75CFEFFF7ECFE56
:1030A00018B1FFF7BDFE012070BDFFF7B9FE00208B
:1030B00070BD2DE9F0411E4615460F460446FFF748
:1030C00083FE6006000EFFF745FEFFF7D5FE60B9F0
:1030D0003846FFF73FFEFFF7CFFE00240CE0305DDF
:1030E000FFF738FEFFF7C8FE20B1FFF799FE012079
:1030F000BDE8F081641CE4B2AC42F0D3FFF790FE6F
:103100000020F5E73EB500211148009101910F4ADA
:103110000291026081600173017501244FF4602205
:103120000461C2614160FDF7D7FD08B1FDF74FFDB5
:103130000420CDE900040220029069460448FDF70E
:1031400049FD002801D0FDF742FD3EBD00280140A9
:10315000040100202DE9F04786B000244E48009479
:10316000019402940394816941F0100181618169A5
:1031700001F010010491816941F0200181618169B0
:1031800001F020010491816941F0040181618169AC
:1031900001F004010491816941F0080181618069B5
:1031A0003E4F00F008004FF40055049000222946DD
:1031B0003846FEF70AF9DFF8E8A001224FF49851EB
:1031C0005046FEF702F9002242F228015046FEF76F
:1031D000FCF8DFF8D0904FF4004801224146484601
:1031E000FEF7F3F80095022601250396CDE9015478
:1031F00069463846FDF7ECFFE020CDE9000469465A
:1032000048460294FDF7E4FF0320CDE90004694637
:1032100050460294FDF7DCFF2F03CDE90075CDE9A0
:10322000025669465046FDF7D3FF42F22830CDE9F9
:103230000005CDE9024669465046FDF7C9FF1A4828
:103240000097CDE9010569464846FDF7C1FFCDE984
:103250000085CDE9025669464846FDF7B9FF1020C2
:1032600000901248CDE9010669465046FDF7B0FFCF
:10327000002202210A20FEF719F90A20FEF708F9B8
:10328000002202212820FEF711F92820FEF700F97C
:1032900006B0BDE8F08700000010024000100140B9
:1032A000000C014000080140000021100000111036
:1032B00010B596B000240F941094119412941394A6
:1032C0001C2168461494FCF775FF202107A8FCF721
:1032D00071FF2D482B49016040F29F51C0E9011454
:1032E0006321C0E903148021C0E90541FEF7B8FC61
:1032F00008B1FDF76CFC4FF480500F900FA92248E5
:10330000FEF726FD08B1FDF762FC1F48FEF7A5FF9A
:1033100008B1FDF75CFC139413A91B481494FEF745
:103320006BFC08B1FDF753FC602000903220CDE922
:1033300001040394049405940022694612480694FB
:10334000FEF725FF08B1FDF742FC0C2269460E4846
:10335000FEF71DFF08B1FDF73AFC079408940994A5
:103360004FF400500A94CDE90B4007A906480E948B
:10337000FEF718FC08B1FDF72AFC0348FEF7E0FE53
:1033800016B010BD002C01403401002010B58CB0E7
:1033900024216846FCF70EFF0024164809944FF0DC
:1033A00080410A94C0E900144FF6FF71C0E9024160
:1033B000046184610320CDE900040120CDE9020409
:1033C00006210491CDE90540CDE907416946094848
:1033D000FEF72CFD08B1FDF7FAFB099409A9054891
:1033E0000A94FEF709FC002801D0FDF7F0FB0CB0B1
:1033F00010BD00007C01002010B58CB0242168466F
:10340000FCF7D8FE00241648099414490A94C0E930
:1034100000144FF6FF71C0E902410461846103208A
:10342000CDE900040120CDE9020406210491CDE993
:103430000540CDE9074169460948FEF7F7FC08B1A8
:10344000FDF7C5FB099409A905480A94FEF7D4FBCA
:10345000002801D0FDF7BBFB0CB010BD00080040F8
:10346000C40100200C4810B50A4901604FF4E13155
:103470004160002181600C22C160C0E904128161B9
:10348000C161FFF73FF9002803D0BDE81040FDF708
:103490009EBB10BD003801400C0200200C4810B546
:1034A0000A4901604FF4E1314160002181600C2242
:1034B000C160C0E904128161C161FFF723F90028EE
:1034C00003D0BDE81040FDF782BB10BD00480040AE
:1034D00054020020FEE7000010B50D4C0D49606855
:1034E000884208DAFDF740F90B4A0C4BFCF755FF10
:1034F000FDF766F96060207810B16168084603E066
:10350000606880F000400146BDE8104000F066B8F9
:1035100058000020CDCC4C409A9999999999E93F4F
:1035200010B50D4C0D496068884208DBFDF71CF9A9
:103530000B4A0C4BFCF7D2FFFDF742F96060207894
:1035400010B16168084603E0606880F00040014601
:10355000BDE8104000F042B858000020CDCC4C3FF0
:103560009A9999999999E93F70B51A4E0C46051E9A
:1035700001DD012200E0002208213046FDF725FF91
:103580004FF40051002C01DD012200E00022304602
:10359000FDF71BFF10486FF06201002D04DA8D4229
:1035A00000DA0D466A4204E0632D00DD6325C5F1B3
:1035B000640203685A63002C04DA8C4200DA0C4679
:1035C000614204E0632C00DD6324C4F164010068FF
:1035D000016470BD000C0140340100200C4A10B59C
:1035E00010600C4801600C4801680A4800F074F94A
:1035F000FDF78DF8044609480168054800F06CF9AC
:10360000FDF785F82146BDE81040FFF7ADBF00008B
:103610009C030020BC030020400000203C00002050
:10362000FEE770B50024002104F1B00000F0FDF8C1
:103630000021084600F0F9F80021102000F0F5F80C
:1036400000250121002000F0F0F86D1CEDB2802D66
:10365000F7D3641CE4B2082CE5D370BD10B54FF469
:103660004870FDF761FD0021AE2000F0DEF800217A
:10367000084600F0DAF80021102000F0D6F800210A
:10368000402000F0D2F80021B02000F0CEF8002158
:10369000812000F0CAF80021FF2000F0C6F80021C8
:1036A000A12000F0C2F80021A62000F0BEF8002101
:1036B000A82000F0BAF800213F2000F0B6F8002161
:1036C000C82000F0B2F80021D32000F0AEF80021AD
:1036D000084600F0AAF80021D52000F0A6F8002145
:1036E000802000F0A2F80021D82000F09EF80021F0
:1036F000052000F09AF80021D92000F096F800216A
:10370000F12000F092F80021DA2000F08EF800217C
:10371000122000F08AF80021DB2000F086F800215A
:10372000302000F082F800218D2000F07EF800218A
:10373000142000F07AF80021BDE81040AF2000F01E
:1037400074B810B50A460446002102F1B00000F03A
:103750006CF8102040EA1410002100F066F804F024
:103760000F00BDE81040002100F05FB82DE9F041E6
:10377000203A00240D468046D6B27F2803D9002087
:103780008D1C8046EDB2102B294610D0FFF7D9FFD3
:10379000164906EB460001EB40050121285D00F0CB
:1037A00044F8641CE4B2062CF7D3BDE8F081FFF7BF
:1037B000C8FF0F4F04EB06100121385C00F035F80C
:1037C000641CE4B2082CF5D36D1CE9B24046FFF747
:1037D000B8FF002404EB061038440121007A00F001
:1037E00024F8641CE4B2082CF4D3DEE774750008F6
:1037F0009C7700082DE9F041984617460E4604468E
:1038000000250DE0434631462046FFF7AFFF083460
:10381000E4B2782C02D90024B61CF6B26D1CEDB2CD
:103820007A5D002AEED1BDE8F081C0B209B100F0A6
:10383000A4BB00F08BBB00001D49002001F1100C5F
:103840004860086088601B4A1B4BC8608CE80D000C
:10385000C861203101F1100C486008608860C860C0
:103860008CE80D00C86120315A42486008608860C9
:10387000C860C1E90402114AC1E906022031104AB8
:10388000C1E9002088600F4AC860C1E904020E4AFD
:103890008A610E4ACA6120310D4A4860086088601A
:1038A000C860C1E9040288610A48C8617047000025
:1038B0009C0300200000204100004040CDCC4C3F44
:1038C0000000C841000080BE6F1283BA6F12833AB5
:1038D0000AD7A33CCDCCCC3D2DE9F041044600688D
:1038E000FCF7D9FC0546A06029462069FCF781FC5D
:1038F000206107462846E168FCF7CDFCE169FCF74A
:10390000D0FC06463946A069FCF7CBFC07462946A1
:103910006069FCF7C6FC3946FCF76BFC3146FCF7E6
:1039200068FCE5606060BDE8F08170477047FDF7B6
:1039300057BD30B593B028216846FCF73BFC1421F5
:103940000AA8FCF737FC002501200F95109511956A
:10395000010412958DE8230004904FF4E010CDE9A6
:103960000810022407946846FDF776FF08B172B686
:10397000FEE70AA90F2081E831004FF48060CDE90D
:103980000D0502210AA8FDF78BFE08B172B6FEE70D
:103990004FF4004011900F940FA8FDF70BFE002884
:1039A00001D072B6FEE713B030BD70470148FEF794
:1039B0002FBB0000340100200148FEF729BB0000A6
:1039C0007C0100200148FEF723BB0000C401002059
:1039D000F0B50268194B1A4C1A4D4FF080479842C7
:1039E00005D0B84203D0A04201D0A84203D122F0B2
:1039F00070064A683243984205D0B84203D0A042CC
:103A000001D0A84203D122F44074CA6822434C6911
:103A100022F08002224302608A68C2620A688262DF
:103A2000984201D109690163012141610169C90716
:103A300003D0016921F001010161F0BD002C0140BA
:103A4000000400400008004010B501F01F030121F0
:103A5000046A99408C430462016A9A4011430162EE
:103A600010BD10B5846842EA032224F47F440A435F
:103A70002243826010BD826822F070020A4342F045
:103A8000070181607047000030B5036A026A22F0C6
:103A9000010202624268846924F073050C682C43B9
:103AA00023F002058B682B430A4DA8420BD123F06B
:103AB0000805CB6822F440722B434D6923F00403C0
:103AC00015438A692A4342608461496841630362FD
:103AD00030BD0000002C014030B5026A036A23F0BB
:103AE00010030362436884690D6824F4E64444EAE1
:103AF00005248D6822F0200242EA05120B4DA842EF
:103B00000ED1CD6822F0800242EA05124D6923F4FD
:103B1000406343EA85038D6922F0400243EA85034E
:103B20004360846149688163026230BD002C0140BA
:103B300030B5036A026A22F4807202624268C46984
:103B400023F4007324F073050C682C438D6843EA5A
:103B500005230C4DA8420ED1CD6823F4006343EA3F
:103B600005234D6922F4405242EA05128D6923F47F
:103B7000806342EA05124260C4614968C16303621E
:103B800030BD0000002C014030B5046A026A22F406
:103B9000805202624268C3690D6823F4E64343EA37
:103BA00005238D6824F4005444EA0534064DA842E8
:103BB00004D14D6922F4804242EA85124260C36119
:103BC00049680164046230BD002C014010B5036AED
:103BD000046A24F001040462846924F0F00444EAD5
:103BE000021423F00A020A438461026210BD10B578
:103BF000036A046A24F010040462846923F0A003B9
:103C000024F4704444EA023243EA01118261016201
:103C100010BD10B5406A0021C185C184FEF73AFC91
:103C200010BD01680C3151E8002F22F4907241E878
:103C30000023002BF5D10168143151E8002F22F048
:103C4000010241E80023002BF5D1016B012909D1C4
:103C500001680C3151E8002F22F0100241E80023E6
:103C6000002BF5D1202180F842100021016370471C
:103C700008B590F84210222901D0022008BD8268C0
:103C80004FF480539A4201D1016921B1816A9A426D
:103C90001BD04AB10AE00268816A5268C2F3080286
:103CA0000A80816A891C08E0026972B10268526860
:103CB00002F07F020A70816A491C8162C18D491E2F
:103CC0000904090CC18503D01BE002685268F1E7C2
:103CD0000168CA6822F02002CA600168CA6822F43A
:103CE0008072CA6001684A6922F001024A6120219B
:103CF00080F8421000214163026B012A03D0FEF7D5
:103D000007FE002008BD016301680C3151E8002F57
:103D100022F0100241E80023002BF5D101680A6867
:103D2000D20602D50A6849680091818DFEF7B1FB81
:103D3000E7E7000070B5044600680169E26821F415
:103D40004051114301612169A0680843616908433A
:103D50002168CA6841F20C639A430243CA60206832
:103D60004169A26921F44071114341611E492068F3
:103D7000884202D1FDF73AFD01E0FDF727FD00EB97
:103D8000C00101EB0012606864218000B2FBF0F317
:103D9000B3FBF1F36FF018067343B2FBF0F5B2FB1F
:103DA000F0F605EB8305322303EB0515B5FBF1F5C2
:103DB000B6FBF1F605F0F00505EB0615B2FBF0F6E3
:103DC000B2FBF0F0B0FBF1F06FF01802504306EBDD
:103DD000800003EB0010B0FBF1F0216800F00F0051
:103DE0002844886070BD00000038014081628285EF
:103DF000C28500214164222180F84210016921B16D
:103E00000168CA6842F48072CA6001684A6942F077
:103E100001024A610068C16841F02001C1600020D0
:103E200070472DE9F843984617460D460446089E0C
:103E300024E0701C22D0FDF7CDFAA0EB0800B042C0
:103E40001AD8CEB12068C168490717D5802D15D082
:103E5000402D13D00168C94309070FD4016800251C
:103E6000406800902046FFF7DCFE0820606484F87C
:103E700040500120BDE8F8830320FBE7206800687C
:103E800035EA000004D00020B842D2D00020F1E78B
:103E90000120F9E70D4810B500680068800610D5CC
:103EA0000B4A5078FF2801D3002050700949C0B256
:103EB0000144401C50704FF47A7301220348FEF70E
:103EC000C1FCBDE810400148FEF7E6BA0C02002034
:103ED000340000209C0200200148FEF7DDBA0000FB
:103EE00054020020FEE700002DE9F047154E04467D
:103EF0004FF40047002239463046FDF766FADFF8F6
:103F0000489000254FF4805804F08000802816D097
:103F1000002241464846FDF758FA6006040E012289
:103F200039463046FDF751FA002239463046FDF752
:103F30004CFA6D1CEDB2082DE6D3BDE8F0870122E6
:103F4000E7E7000000080140000C014010B50446FE
:103F5000FEF71EFE7820FFF7C7FFFEF753FE002096
:103F6000FFF7C2FFFEF74EFE2046FFF7BDFFFEF74C
:103F700049FEBDE81040FEF72BBE10B50446FEF723
:103F800007FE7820FFF7B0FFFEF73CFE4020FFF76A
:103F9000ABFFFEF737FE2046FFF7A6FFFEF732FE27
:103FA000BDE81040FEF714BE0FB4054B10B503A9D1
:103FB000044A029800F080F910BC5DF814FB000080
:103FC0000D5A0008980000200FB4084B10B504A942
:103FD00002AA039800F070F9044602A9002000F03C
:103FE00002FD204610BC5DF814FB0000E749000804
:103FF000490050EAC12018BF04204A0D18BF40F004
:10400000010040F2FF72B2EB515F08BF40F00200C6
:10401000012808BF052070470907090E002804DBA6
:1040200000F1E02080F80014704700F00F0000F16C
:10403000E02080F8141D70472DE9F0414F1E00EB81
:10404000C7010446D1E9000115461E4637F00602B5
:104050000DD02A463346FCF747FA7F1E04EBC70310
:10406000D3E90023FCF799F937F00602F1D1022FCA
:1040700025D0042F13D0062F18BFBDE8F0812A46A3
:104080003346FCF731FAD4E90A23FCF786F92A46CD
:104090003346FCF729FAD4E90823FCF77EF92A46CF
:1040A0003346FCF721FAD4E90623FCF776F92A46D1
:1040B0003346FCF719FAD4E90423FCF76EF92A46D3
:1040C0003346FCF711FAD4E90223FCF766F92A46D5
:1040D0003346FCF709FAD4E90023BDE8F041FCF7C8
:1040E0005CB90122FCF7E1BAFCF757B9002213468C
:1040F00010461146FCF76ABA024A00201107FCF785
:10410000D4BA000001FDFFFF02E008C8121F08C179
:10411000002AFAD170477047002001E001C1121F48
:10412000002AFBD170470000014908607047000079
:104130009C0000202DE9FF5F82B00021DDE9043002
:10414000020DDDF840B0034318D044F61050A2F23F
:10415000FF3242431514119801281FD0A5EB0B0024
:10416000401C5FEA000A4FF000064E4FDFF838911E
:10417000B046504615D5CAF1000413E01198012449
:104180004AA3012801D16FEA0B010298119AC0E9F4
:104190000031C0E9024206B0BDE8F09FCBF100005B
:1041A000DFE704460021404A491842EB0450CDE9BC
:1041B000001012E0E00707D032463B464046494631
:1041C000FCF792F98046894632463B46104619462E
:1041D000FCF78AF906460F466410002CEAD1DDE9A7
:1041E0000401DDE90023BAF1000F06DAFCF77CF9DF
:1041F00042464B46FCF778F905E0FCF7E7F9424602
:104200004B46FCF7E3F904460E460022284BFCF728
:10421000BFFA03D84FF0FF30014607E00022254BDC
:1042200020463146FCF7B9F8FCF7E2FB102409E020
:10423000002C0ADB0A220023FCF7F4FA039B30323D
:104240001A55641E50EA0102F2D1641C039AC4F1AB
:1042500011031444119A012A03D0012208430DD1FD
:104260000AE0084304D000204FF0110B119072E7D0
:10427000A3EB0B056D1E0DE05B4504DD4FF0000266
:1042800005F1010504E003DA4FF00002A5F1010594
:10429000002AECD002981199C0E90231C0E900452A
:1042A00079E70000000014400000F03F30000000FB
:1042B0000000F0430000E03F2DE9FF4F95B09B4622
:1042C0008946064600250FE2252877D10024274697
:1042D000F84A0121059400E0044316F8013F203B11
:1042E00001FA03F01042F7D130782A2811D06FF08C
:1042F0002F033078A0F13002092A16D8059A44F02D
:10430000020402EB820203EB42021044761C059089
:10431000EFE759F8042B0592002A03DA504244F4DF
:104320000054059044F00204761C30782E2816D1F3
:1043300016F8010F44F004042A280DD06FF02F0264
:104340003078A0F13003092B09D807EB870302EB83
:104350004303C718761CF3E759F8047B761C3078C2
:104360006C280FD006DC4C2817D068280DD06A289E
:1043700014D104E0742810D07A280FD10DE044F451
:1043800000140AE044F4801401E044F4401472780C
:10439000824202D104F58014761C761C307866289F
:1043A0000BD013DC582877D009DC002875D04528BD
:1043B000F6D04628F4D047281AD19DE118E06328AA
:1043C00035D0642879D0652812D195E1702873D052
:1043D00008DC6728F1D069286FD06E280DD06F28CF
:1043E00006D1B5E073282CD0752875D0782874D004
:1043F0005A46179990476D1C75E1C4F30250022884
:1044000009D003280DD0D9F8001004280DD00D6074
:1044100009F1040967E1D9F80010EA17C1E900526F
:10442000F6E7D9F800100D80F2E70D70F0E719F803
:10443000041B8DF8001000208DF80100EA460120D1
:1044400003E059F804AB4FF0FF3061074FF0000173
:1044500002D40DE008F101018846B9420FDA804527
:10446000F8DB1AF808100029F4D108E008F101017E
:1044700088468142FADB1AF808100029F6D105981F
:104480005B46A0EB080721463846179A00F094FADD
:10449000284400EB080507E04DE029E10DE01AF89B
:1044A000010B5A4617999047B8F10108F7D25B46BD
:1044B00021463846179A13E142E00A220092C4F3DB
:1044C00002524FF0000A022A08D059F804CB032AFE
:1044D0004FEAEC710AD00DE029E02AE009F107016A
:1044E00021F00702F2E802C1914609E00FFA8CFCC4
:1044F0004FEAEC71042A03D14FFA8CFC4FEAEC71BD
:10450000002907DA0A460021DCF1000C61EB020108
:104510002D2202E0220504D52B228DF80420012251
:1045200003E0E20701D02022F7E7904659E00A2194
:1045300002E010220DE010214FF0000A00910BE084
:1045400010224FF0000A44F004040827009203E010
:1045500008224FF0000A0092C4F30252022A05D04A
:1045600059F804CB0021032A08D009E009F107011A
:1045700021F00702F2E802C1914605E01FFA8CFC27
:10458000042A01D10CF0FF0C4FF00008220728D5B7
:10459000702806D0009B83F0100353EA0A0305D06D
:1045A0000EE040228DF80420012208E05CEA0102BE
:1045B00006D030228DF804208DF8050002229046A6
:1045C000009B83F0080353EA0A030AD15CEA010264
:1045D00001D1620705D530228DF804204FF0010883
:1045E0007F1E582804D034A003900EA802900DE03E
:1045F00036A0F9E753466046009AFCF713F9844663
:104600000398825C0298401E029002705CEA0100EE
:10461000F0D1029806A9081A00F1200A600702D515
:1046200024F4803400E00127574502DDA7EB0A009F
:1046300000E0002000EB0A01009005984144401A78
:104640000590E00306D45B462146179A059800F0D2
:10465000B3F90544002706E001A85A46C05D179942
:1046600090476D1C7F1C4745F6DBE0030CD55B468D
:104670002146179A059800F09FF9054404E0302080
:104680005A46179990476D1C0099481E00900029C2
:10469000F5DC08E0029802995A460078491C02911C
:1046A000179990476D1CBAF10001AAF1010AF1DCDB
:1046B00065E10000092801003031323334353637E6
:1046C000383961626364656600000000303132335E
:1046D00034353637383941424344454600000000FE
:1046E00000F058F90544761C307800287FF4ECADD2
:1046F00019B02846BDE8F08F620700D4062709F1FB
:10470000070222F0070CFCE80223E14603F0004810
:104710005FEA080C02D00FF2702C0DE05FEA045C37
:1047200002D50FF2682C07E05FEAC47C02D00FF2DA
:10473000602C01E0AFF2700C4FF0FF3823F0004323
:10474000CDF850C065280CD006DC452809D0462895
:104750001DD047283DD13DE0662818D067287ED17E
:1047600038E00021112F01DB112000E0781CCDE999
:10477000000106A90EA8FFF7DDFCDDE90F010E9A86
:1047800003910021009207F1010A04914DE04FF0DE
:1047900000400097CDE9011006A90EA8FFF7CAFC5A
:1047A000DDE90F0203920E9B11990022DDF80CA0A7
:1047B0000093049211B9791C00EB010AB7EB0A00CF
:1047C00004D4C0F1FF3007F1010A0490AAEB0700FE
:1047D000019044E0012F00DA01270021112F01DDB3
:1047E000112000E03846CDE9000106A90EA8FFF728
:1047F000A1FCDDE90F010E9A0391002104910092C2
:10480000BA4621070CD40399514500DA8A46BAF119
:10481000010F05DD009AAAF10101515C302908D091
:10482000B84202DA10F1040F06DA0121CDE90110D5
:1048300015E0AAF10101E9E7002805DC049901442B
:104840000491AAEB000102E0411C514500DD8A46BB
:104850000499401A401C01904FF00040029020073C
:1048600004D40198504501DBCDF8048000208DF878
:104870004F0002980DF14F07B0F1004F25D02B20CB
:104880000E9002984FF0020800280CDA4042029085
:104890002D200E9007E00A210298FBF7ADFF303182
:1048A000029007F8011DB8F10001A8F10108F2DC3F
:1048B00002980028EFD1791E0E980870307800F029
:1048C000200040F0450007F8020D12A8C01B00F1BF
:1048D00007081498007800B1012000EB0A01019844
:1048E00001EBE07105984144401A401E0590E00339
:1048F00006D45B462146179A059800F05DF80544FA
:104900001498007818B15A46179990476D1CE00327
:1049100024D55B462146179A059800F04DF80544CA
:104920001CE00498002807DBDDE90301884203DD71
:104930000098405C179901E0179930205A4690473B
:10494000049805F10105401C04900198401E019057
:1049500004D12E205A46179990476D1CBAF10001D8
:10496000AAF1010ADDDC05E017F8010B5A46179998
:1049700090476D1CB8F10001A8F10108F4DC5B461A
:104980002146179A0598ABE62D0000002B00000089
:10499000200000002DE9F041044600251E46174680
:1049A000880404D405E039462020B0476D1C641EFD
:1049B000F9D52846BDE8F0812DE9F04104460025EF
:1049C0001E469046C80301D5302700E02027880402
:1049D00004D505E041463846B0476D1C641EF9D544
:1049E0002846BDE8F0810A68531C0B6010707047C0
:1049F0002DE9FE4F07460E460025684601F012F8E5
:104A000000246FF00F0AE8464FF0010957F8240020
:104A100056F82410401A00D54042FBF75DFE51467F
:104A2000FBF7AFFC58F8241011F0FF4F0BD0FBF749
:104A30006AFC4FF07E51FBF72EFC0A4920F0004043
:104A4000884205DC07E0084908440849884202D347
:104A500009FA04F00543641C032CD7DB2846BDE8A3
:104A6000FE8F0000295C0F3E666666C19A99D900E8
:104A700010B51148FCF788FA32210F48FCF7E6F927
:104A800008B10E4810BD0C48FCF722F9FBF72DFECB
:104A90006FF00B01FBF775FCFBF766FE4FF066321B
:104AA000074BFBF721FD0022064BFBF71DFDBDE880
:104AB0001040FBF785BE000004010020000080BF0D
:104AC00066660A40000014402DE9F04D8D4F21F03C
:104AD000004A86B005460C46BA452ADBAAEB070019
:104AE00028430AD08848824501DC1AD1CDB106B0EE
:104AF0002846BDE8F04DFFF7F4BA844A844B2846B7
:104B0000FBF7F2FC07460E46824A834B28462146B5
:104B1000FBF7EAFC06B03A463346BDE8F04DFBF73A
:104B20003CBC0120FFF700FB06B0BDE8F04DFFF7ED
:104B3000DDBA7A48824542DABAF1795F0BDA284663
:104B4000FFF756FA042808BFFFF7D6FA284606B042
:104B50002146BDE8F08D2A460B461046FBF7C4FC03
:104B6000834602466E480E460B4606217844FFF700
:104B700063FA5A463346FBF7B7FC804669488A46D3
:104B80005A46334604217844FFF756FA5A463346CC
:104B9000FBF7AAFC00223B46FBF7FFFB02460B4655
:104BA00040465146FBF712FD2A462346FBF79CFC84
:104BB00006B02A462346BDE8F04DFBF7EEBB28467B
:104BC00024F0004100223D463B46FBF78AFC4FF0B3
:104BD000FF32FBF76AFD0646024653480F460B4676
:104BE00006217844FFF728FA32463B46FBF77CFC67
:104BF000CDE900014D4832463B4604217844FFF799
:104C00001BFA32463B46FBF76FFC00222B46FBF7B4
:104C1000C4FB834602913046394602F067FC804669
:104C200043480D46504517DCDDE900015A46029B1A
:104C3000FBF7CCFC42462B46FBF756FC42462B4684
:104C4000FBF7ABFB0122FBF730FD304A304BFBF7A3
:104C500045FC304A304B4CE04FF0000A52460B46C0
:104C60004046FBF79AFBCDE9031052462B4610460F
:104C70001946FBF739FC32463B46FBF732FCDDE9CF
:104C80000332FBF7A3FC06460F46DDE900015A4656
:104C9000029BFBF79BFC834600910122304639467C
:104CA000FBF703FD194A1A4BFBF71BFC06460F46A0
:104CB000012240462946FBF7F8FC5A46009BFBF7C9
:104CC00013FC32463B46FBF709FC06460F46012221
:104CD00050462946FBF7E9FC0E4DDFF858802A467E
:104CE0004346FBF7FEFB32463B46FBF7FAFB2A4600
:104CF0004346FBF7F6FB002CD8BF81F0004106B01D
:104D0000BDE8F08D0000F03F0000F07F075C143339
:104D100026A6913C182D4454FB21F93F0000E03FAA
:104D2000683E00007E3E0000F23D0000083E0000AC
:104D30003333EF3FFB21E93F2DE9F84F04460D46A1
:104D400021F0004000917349814211DC7249884290
:104D500001DC06D12CB120462946BDE8F84FFFF70B
:104D6000C0B96E48002DCCBF6D496E49BDE8F88FC3
:104D70006D49814211DD6D498142D8BF4FF0FF3648
:104D80006DDD20462946FFF733F9042808BFFFF7F9
:104D9000B3F920462946BDE8F88F6549654F25F0EF
:104DA0000045814233DD6449814219DD00263246E7
:104DB0004FF0804320462946FBF7EFFA80468A46AB
:104DC000012220462946FBF770FC00223B46FBF7F8
:104DD00085FB42465346FBF7F9FB04460D463EE091
:104DE00001260022BA463B4620462946FBF7D5FA63
:104DF00080460F460022534620462946FBF76EFBAD
:104E000042463B46FBF7E2FB04460D4627E04B4992
:104E100081421BDDDFF828A10226002253462046EE
:104E20002946FBF761FB00223B46FBF7B6FA8046BA
:104E30000F460022534620462946FBF74FFB4246C9
:104E40003B46FBF7C3FB04460D4608E0032622461B
:104E50002B4600203B49FBF7B9FB04460D46224692
:104E60002B4610461946FBF73FFB8B46824602460F
:104E70000B46FBF739FB07460246334888460B468C
:104E800006217844FFF7D8F852465B46FBF72CFB27
:104E900082462E488B463A46434605217844FFF722
:104EA000CBF83A464346FBF71FFB02460B46002E63
:104EB000504659460CDAFBF770FA22462B46FBF7B0
:104EC00013FB01B022462B46BDE8F04FFBF709BBB0
:104ED000FBF763FA22462B46FBF706FB1C4A7A4493
:104EE00002EBC603D3E90023FBF7F8FA22462B4670
:104EF000FBF7F4FA174A7A4402EBC603D3E900231E
:104F0000FBF7EFFA009A002AB8BF81F00041BDE834
:104F1000F88F0000000010440000F07F182D44546A
:104F2000FB21F93FFB21F9BF0000DC3F0000203EE0
:104F30000000F33F0000F03F0000E63F0080034028
:104F40000000F83F0000F0BF0A3C0000C83B000032
:104F5000663B00002E3B00002DE9F04D9446CCF15D
:104F6000000423F000464CEA0404524F46EAD4748D
:104F70009A46884621F00042BC4206D8454240EAA3
:104F8000050442EAD474BC4204D9BDE8F04D62463F
:104F9000FFF7AAB8AAF14055A5F17F6555EA0C04C0
:104FA0000BD0022404EAAA74434DDFF810E144EA6E
:104FB000D87452EA000B04D00CE0BDE8F04DFFF7C6
:104FC000BBBE002C14BF012CBDE8F08D022C30D0EC
:104FD000032C32D056EA0C0B0AD0BE4220D1BA4282
:104FE00009D126F0804622F080423346114617E070
:104FF00000291ADB25E0DFF8C8B0FB44002C04BF11
:10500000DBE90001BDE8F08D012C02BFDBE9000106
:1050100081F00041BDE8F08D022C0AD0032C0CD0A9
:10502000BA4212D1B8F1000F0BDA23482549BDE886
:10503000F08D28462449BDE8F08D28467146BDE82C
:10504000F08D1D482149BDE8F08D921B12153C2AB8
:10505000C4BF19481D490EDCBAF1000FBEBF12F1E2
:105060003C0F0020014606DB6246FBF7AFFA21F059
:105070000041FFF761FE002C08BFBDE8F08D012C58
:1050800004BF81F00041BDE8F08D114A114B022CA4
:1050900007D0FBF723FA2A46BDE8F04D0A4BFBF791
:1050A0001DBAFBF71BFA2A46BDE8F04D064BFBF78D
:1050B00018BA00000000F07F182D4454FB2109C0ED
:1050C000C23A0000FB21F9BFFB210940FB21F93F57
:1050D000075C143326A6A13C08B560B120208DF8EA
:1050E000000028208DF8010030208DF802003820C3
:1050F0008DF8030004E0A32204216846FBF753F86F
:105100006A46042140F69E2002F048F901F006FEAE
:1051100008BD00003EB5044602208DF80000CA20FC
:105120008DF80100E3208DF8020009208DF80300BE
:105130006A460421682002F031F9A3208DF80000AE
:10514000610609D5C0218DF80110C8218DF8021023
:10515000C2218DF8031005E08DF801008DF80200E2
:105160008DF8030014F4C07F09D0C4218DF8041019
:10517000CC218DF80510C6218DF8061005E08DF8BC
:1051800004008DF805008DF806008DF808008DF8F4
:1051900007008DF809006A460A2140F6A72002F0B0
:1051A000FDF8A0074FF0D80503D020208DF80000AF
:1051B00001E08DF800506A46012140F6B62002F069
:1051C000EDF8A00601D5012000E0002000F08EF8E7
:1051D00014F4C07F1ED0E0050AD5B2208DF800007F
:1051E0008B208DF80100B6208DF802009B2009E08D
:1051F000B0208DF8000080208DF80100B4208DF8DB
:10520000020090208DF803006A46042140F6A22097
:1052100002F0C4F8E1074FF40B6022D0F8218DF8BA
:1052200000106A46012102F0B9F8FA21072000F0C7
:1052300039FB072000F004FB012000F021FB642073
:1052400000F0C4FB4FF4FA7000F0D0FBC8212548F1
:1052500000F0BEFA282000F0D3FA0A2000F0E0FAAD
:1052600005E08DF800506A46012102F097F8A0078A
:1052700003D5D9208DF8000001E08DF800506A4672
:10528000012140F23D7002F089F8600701D501204C
:1052900000E0002000F048F8E00601D5012000E021
:1052A0000020FFF719FF104D44F00800688101F05D
:1052B00035FD0020A873600601D50620A87314F4FC
:1052C000C07F02D0A87B801DA87314F0140F02D0F9
:1052D000A87B1030A873A00702D0A87B001DA8737C
:1052E00000203EBD09E3CA023C0400200EB54FF485
:1052F000976310B106A107C901E008A207CA8DE8AB
:1053000007006A460921184602F048F80EBD000061
:10531000B8AAB38DB4980D355D000000B8AAAAAA4A
:10532000B088C3C5C700000008B560B1C0208DF8C3
:105330000000C2208DF80100C4208DF80200C620B4
:105340008DF8030004E08B2204216846FAF72BFF56
:105350006A46042140F6982002F020F801F0DEFCB5
:1053600008BD0000C8234FF48062024940F6F630C1
:1053700001F0B6BBDC7D00082DE9FF4F89B0174670
:10538000DDE9165200244C4E884681462C80A24608
:10539000B07B694601F050FC4FF0FF3B18B1584616
:1053A0000DB0BDE8F08F708910F0140F3CD000995B
:1053B00009BA21F0FF039DF803100B433B600199EC
:1053C0001B1409BA21F0FF029DF807105B430A4342
:1053D0007A6002999DF80B4009BA21F0FF01214340
:1053E000B960039C091424BA24F0FF0C9DF80F4007
:1053F00012144CEA040CC7F80CC04FEA2C4749437E
:1054000002FB023207FB071111441024A1F1706165
:10541000B1F1007F04D901F081FCA5F800A0BEE73E
:10542000298841F4807129804206694611D50A19FC
:10543000A41D13885BBAA8F8003053885BBAA8F89B
:105440000230928852BAA8F804202A8842F0080252
:105450002A8010F4C07F11D00A19A41D13885BBAEA
:10546000A9F8003053885BBAA9F80230928852BA82
:10547000A9F804202A8842F070022A80800716D0FA
:105480000C44E07800F0C00500F03F016078C007F0
:1054900006D0C80801F007013268491C02B19047E4
:1054A0006078000703D5716809B1A80988470C988E
:1054B00001F062F8002073E73C0400202DE9FF4171
:1054C000044603A801F0C2F9BDF80C00410CC30367
:1054D0002F48028902F00300550754F8200000D538
:1054E0004042C2F3C105960654F8255000D56D42DE
:1054F000C2F38116D20554F8264000D56442A0FBC1
:105500000367C21702FB037200FB0120820042EA1C
:105510009670A5FB0367EA1702FB037205FB0122E5
:10552000950045EA9672A4FB0367E51705FB037334
:1055300004FB01318B0043EA9671030E8DF80030B5
:10554000030C8DF80130030A8DF802308DF803004A
:10555000100E8DF80400100C8DF80500100A8DF85F
:105560000600080E8DF80800080C8DF80900080ADE
:105570008DF80A008DF807208DF80B106A460C2173
:105580004FF4257001F00AFF04B0BDE8F08100007F
:105590003C04002030B5044613A285B007CA8DE84C
:1055A00007004FF0FF35C82C16D8C820B0FBF4F127
:1055B000491E080A8DF80C008DF80D1003AA02216F
:1055C00040F2162001F0EAFE30B96A460C2140F69E
:1055D000C12001F0E3FE10B1284605B030BD0548FA
:1055E00084810020F9E70000FEF2ABC4AAF1DFDFFE
:1055F000BBAFDFDF3C040020F8B53049098901F07A
:10560000030250F822404A0700D56442C1F3C102A8
:105610008B0650F8222000D55242C1F3811350F876
:105620002330C80500D55B42254984FB0140850035
:1056300045EA947082FB0142A40F44EA820483FB92
:105640000121950F45EA8105010E8DF80010010C2E
:105650008DF80110010A8DF802108DF803006A46DA
:1056600004214FF4747001F099FE4FF0FF3688B9B1
:10567000200E8DF80000200C8DF80100200A8DF816
:1056800002008DF803406A4604214FF4757001F062
:1056900085FE08B13046F8BD280E8DF80000280CB4
:1056A0008DF80100280A8DF802008DF803506A4633
:1056B00004214FF4767001F071FEF8BD3C04002027
:1056C00009E3CA022DE9FF4104463CA004F00303AC
:1056D000006802903AA0006803903AA006683AA0D9
:1056E000056802A8C15C8DF80010C4F3C101425CDA
:1056F0008DF80120C4F38112805C8DF8020003A8AC
:10570000C35C8DF80430415C8DF80510805C8DF829
:1057100006006A46032140F2264001F03FFE4FF0AA
:10572000FF37E0BB01AA032140F22A4001F036FE18
:10573000A8BBCDE9006560070BD59DF8000040F0DF
:1057400001008DF800009DF8040040F001008DF884
:105750000400A0060BD59DF8010040F001008DF873
:1057600001009DF8050040F001008DF80500E005FE
:105770000BD59DF8020040F001008DF802009DF865
:10578000060040F001008DF806006A4603214FF440
:10579000886001F003FE10B901AA032100E004E0D3
:1057A00040F2314001F0FAFD18B1384604B0BDE8CE
:1057B000F081064804810020F8E700004CCD6C0021
:1057C0000CC92C0036567600264666003C040020A4
:1057D0004FF47A7290FBF2F008B54843010E8DF851
:1057E0000010010C8DF80110010A8DF802108DF8DF
:1057F00003006A4604214FF4AE7001F0CFFD08BDEE
:105800000521B0FBF1F008B5010A8DF800108DF804
:1058100001006A4602214FF4AD7001F0BFFD08BDE2
:105820000521B0FBF1F008B5010A8DF800108DF8E4
:1058300001006A4602214FF4AC7001F0AFFD08BDD3
:1058400008B500218DF80010C10702D030218DF875
:105850000010810705D59DF8001041F00C018DF86E
:105860000010400705D59DF8000040F003008DF8BA
:1058700000006A4601214FF4A47001F08FFD08BDBD
:1058800008B560B1042800D90420401E8DF800003E
:105890006A46012140F24F1001F080FD08BD012051
:1058A000F3E700002DE9FC41054640074FF0FF36C5
:1058B0007CD0B1F5C86F79D80846FAF716FF3E4993
:1058C000FAF721FD074601A800F0A2FF9DF80400A9
:1058D000022806D004280DD008282ED0102865D123
:1058E00034E00E213846FAF74CFDFAF729FF84B26E
:1058F000324907E00D213846FAF743FDFAF720FF59
:105900002F4984B23846FAF7CCFCFAF719FF210A7E
:105910008DF8001080B28DF80140010A8DF8021058
:105920008DF80300E8076C4620D0224602214FF490
:10593000EA7001F033FDC8BB11E00C213846FAF7DC
:1059400020FDFAF7FDFE84B21E49DBE70B21384645
:10595000FAF717FDFAF7F4FE84B21B49D2E7A21C4E
:1059600002214FF4927001F019FDF8B9A8070DD586
:105970006A4602214FF4EC7001F010FDB0B9A21C90
:1059800002214FF4947001F009FD78B9680710D531
:105990006A4602214FF4EE7001F000FD30B9A21CFE
:1059A00002214FF4967001F0F9FC10B13046BDE8C9
:1059B000FC810020FBE70000000048430000404657
:1059C0000000C045000040450000C0440521B0FB78
:1059D000F1F008B5010A8DF800108DF801006A4653
:1059E00002214FF4EF7001F0D9FC08BD0521B0FB96
:1059F000F1F008B5010A8DF800108DF801006A4633
:105A000002214FF4ED7001F0C9FC08BD13B54FF64B
:105A1000FF73012269460248FDF706F800981CBD95
:105A20000C0200202DE9FE430646264801AB042265
:105A300040680D210078FDF7AFFA10B10720BDE8EE
:105A4000FE839DF804101C2000EAD1029DF8071087
:105A5000DFF87490C1F301131A438DF800209DF80C
:105A60000520C1F3810300EAD2021A438DF8012018
:105A70009DF8062001F0030100EAD200084300244B
:105A8000124F8DF80200A0466D46285D10B146F811
:105A900024900AE046F824800DE000BF56F8240068
:105AA0003946FAF7FEFB46F82400285D401E10F048
:105AB000FF002855F2D1641CE4B2032CE5D300208A
:105AC000BDE70000600000207B14AE3E1D5A843FFD
:105AD0002DE9FE4F05460120C14E8DF800004FF024
